{
  "transactions": [
    {
      "hash": null,
      "transactionType": "CALL",
      "contractName": "LayerZeroRead",
      "contractAddress": "0xc7f2cf4845c6db0e1a1e91ed41bcd0fcc1b0e141",
      "function": "setPeer(uint32,bytes32)",
      "arguments": [
        "4294967295",
        "0x000000000000000000000000c7f2cf4845c6db0e1a1e91ed41bcd0fcc1b0e141"
      ],
      "transaction": {
        "from": "0x55afe7fdbb76b478d83e2151b468f7c74442b46c",
        "to": "0xc7f2cf4845c6db0e1a1e91ed41bcd0fcc1b0e141",
        "gas": "0x6e82",
        "value": "0x0",
        "input": "0x3400288b00000000000000000000000000000000000000000000000000000000ffffffff000000000000000000000000c7f2cf4845c6db0e1a1e91ed41bcd0fcc1b0e141",
        "nonce": "0x18",
        "chainId": "0x66eee"
      },
      "additionalContracts": [],
      "isFixedGasLimit": false
    },
    {
      "hash": null,
      "transactionType": "CALL",
      "contractName": "LayerZeroRead",
      "contractAddress": "0xc7f2cf4845c6db0e1a1e91ed41bcd0fcc1b0e141",
      "function": "send(uint32,uint16,bytes,uint32,bytes32)",
      "arguments": [
        "4294967295",
        "1",
        "0x000301001505000000000000000000000000000493e0000001f4",
        "40245",
        "0x190c4029e6206c1c3373571cb74b6e772da865b52755089e9d9d2fff9bb51811"
      ],
      "transaction": {
        "from": "0x55afe7fdbb76b478d83e2151b468f7c74442b46c",
        "to": "0xc7f2cf4845c6db0e1a1e91ed41bcd0fcc1b0e141",
        "gas": "0x7443",
        "value": "0x354a6ba7a18000",
        "input": "0x09e13ba700000000000000000000000000000000000000000000000000000000ffffffff000000000000000000000000000000000000000000000000000000000000000100000000000000000000000000000000000000000000000000000000000000a00000000000000000000000000000000000000000000000000000000000009d35190c4029e6206c1c3373571cb74b6e772da865b52755089e9d9d2fff9bb51811000000000000000000000000000000000000000000000000000000000000001a000301001505000000000000000000000000000493e0000001f4000000000000",
        "nonce": "0x19",
        "chainId": "0x66eee"
      },
      "additionalContracts": [],
      "isFixedGasLimit": false
    }
  ],
  "receipts": [],
  "libraries": [],
  "pending": [],
  "returns": {},
  "timestamp": 1731793312,
  "chain": 421614,
  "commit": "522d4f0"
}