{
  "transactions": [
    {
      "hash": "0xb24015a0a518008867a8e3af9d15157b493f4f76e090bfb6be45fc63565ae35e",
      "transactionType": "CALL",
      "contractName": "LayerZeroRead",
      "contractAddress": "0xc7f2cf4845c6db0e1a1e91ed41bcd0fcc1b0e141",
      "function": "setPeer(uint32,bytes32)",
      "arguments": [
        "4294967295",
        "0x000000000000000000000000c7f2cf4845c6db0e1a1e91ed41bcd0fcc1b0e141"
      ],
      "transaction": {
        "from": "0x55afe7fdbb76b478d83e2151b468f7c74442b46c",
        "to": "0xc7f2cf4845c6db0e1a1e91ed41bcd0fcc1b0e141",
        "gas": "0x6e82",
        "value": "0x0",
        "input": "0x3400288b00000000000000000000000000000000000000000000000000000000ffffffff000000000000000000000000c7f2cf4845c6db0e1a1e91ed41bcd0fcc1b0e141",
        "nonce": "0x18",
        "chainId": "0x66eee"
      },
      "additionalContracts": [],
      "isFixedGasLimit": false
    },
    {
      "hash": "0xfc298d5a4cadf732b8522e568f99526d65f3aff577c8ec6211d2fed39e5a4245",
      "transactionType": "CALL",
      "contractName": "LayerZeroRead",
      "contractAddress": "0xc7f2cf4845c6db0e1a1e91ed41bcd0fcc1b0e141",
      "function": "send(uint32,uint16,bytes,uint32,bytes32)",
      "arguments": [
        "4294967295",
        "1",
        "0x000301001505000000000000000000000000000493e0000001f4",
        "40245",
        "0x190c4029e6206c1c3373571cb74b6e772da865b52755089e9d9d2fff9bb51811"
      ],
      "transaction": {
        "from": "0x55afe7fdbb76b478d83e2151b468f7c74442b46c",
        "to": "0xc7f2cf4845c6db0e1a1e91ed41bcd0fcc1b0e141",
        "gas": "0x7443",
        "value": "0x886c98b76000",
        "input": "0x09e13ba700000000000000000000000000000000000000000000000000000000ffffffff000000000000000000000000000000000000000000000000000000000000000100000000000000000000000000000000000000000000000000000000000000a00000000000000000000000000000000000000000000000000000000000009d35190c4029e6206c1c3373571cb74b6e772da865b52755089e9d9d2fff9bb51811000000000000000000000000000000000000000000000000000000000000001a000301001505000000000000000000000000000493e0000001f4000000000000",
        "nonce": "0x19",
        "chainId": "0x66eee"
      },
      "additionalContracts": [],
      "isFixedGasLimit": false
    }
  ],
  "receipts": [
    {
      "status": "0x1",
      "cumulativeGasUsed": "0x545c",
      "logs": [],
      "logsBloom": "0x00000000000000000000000000000000000000000000000000000000000000000000000000000000000000000000000000000000000000000000000000000000000000000000000000000000000000000000000000000000000000000000000000000000000000000000000000000000000000000000000000000000000000000000000000000000000000000000000000000000000000000000000000000000000000000000000000000000000000000000000000000000000000000000000000000000000000000000000000000000000000000000000000000000000000000000000000000000000000000000000000000000000000000000000000000000",
      "type": "0x2",
      "transactionHash": "0xb24015a0a518008867a8e3af9d15157b493f4f76e090bfb6be45fc63565ae35e",
      "transactionIndex": "0x1",
      "blockHash": "0x2d6c3ee36fb3260781164f27a1d60ba71f16b4e943a9bf71c6b0745c1ee3ede3",
      "blockNumber": "0x5d6cc56",
      "gasUsed": "0x545c",
      "effectiveGasPrice": "0x5f5e100",
      "from": "0x55afe7fdbb76b478d83e2151b468f7c74442b46c",
      "to": "0xc7f2cf4845c6db0e1a1e91ed41bcd0fcc1b0e141",
      "contractAddress": null,
      "gasUsedForL1": "0x0",
      "l1BlockNumber": "0x6c34b2"
    },
    {
      "status": "0x1",
      "cumulativeGasUsed": "0x1f2bd",
      "logs": [],
      "logsBloom": "0x00000000000000000000000000000000000000000000000000000000000000000000000000000000000000000000000000000000000000000000000000000000000000000000000000000000000000000000000000000000000000000000000000000000000000000000000000000000000000000000000000000000000000000000000000000000000000000000000000000000000000000000000000000000000000000000000000000000000000000000000000000000000000000000000000000000000000000000000000000000000000000000000000000000000000000000000000000000000000000000000000000000000000000000000000000000",
      "type": "0x2",
      "transactionHash": "0xfc298d5a4cadf732b8522e568f99526d65f3aff577c8ec6211d2fed39e5a4245",
      "transactionIndex": "0x2",
      "blockHash": "0xf4575454772f016b40c5f601741130e57fb1354f556523c02abbb44ca308013a",
      "blockNumber": "0x5d6cc5d",
      "gasUsed": "0x5820",
      "effectiveGasPrice": "0x5f5e100",
      "from": "0x55afe7fdbb76b478d83e2151b468f7c74442b46c",
      "to": "0xc7f2cf4845c6db0e1a1e91ed41bcd0fcc1b0e141",
      "contractAddress": null,
      "gasUsedForL1": "0x0",
      "l1BlockNumber": "0x6c34b2"
    }
  ],
  "libraries": [],
  "pending": [],
  "returns": {},
  "timestamp": 1731793496,
  "chain": 421614,
  "commit": "522d4f0"
}